{
  "contractName": "Voting",
  "abi": [
    {
      "inputs": [],
      "payable": false,
      "stateMutability": "nonpayable",
      "type": "constructor"
    },
    {
      "anonymous": false,
      "inputs": [
        {
          "indexed": false,
          "name": "candidateID",
          "type": "uint256"
        }
      ],
      "name": "AddedCandidate",
      "type": "event"
    },
    {
      "constant": false,
      "inputs": [
        {
          "name": "name",
          "type": "bytes32"
        },
        {
          "name": "party",
          "type": "bytes32"
        }
      ],
      "name": "addCandidate",
      "outputs": [],
      "payable": false,
      "stateMutability": "nonpayable",
      "type": "function"
    },
    {
      "constant": false,
      "inputs": [
        {
          "name": "uid",
          "type": "bytes32"
        },
        {
          "name": "candidateID",
          "type": "uint256"
        }
      ],
      "name": "vote",
      "outputs": [],
      "payable": false,
      "stateMutability": "nonpayable",
      "type": "function"
    },
    {
      "constant": true,
      "inputs": [
        {
          "name": "candidateID",
          "type": "uint256"
        }
      ],
      "name": "totalVotes",
      "outputs": [
        {
          "name": "",
          "type": "uint256"
        }
      ],
      "payable": false,
      "stateMutability": "view",
      "type": "function"
    },
    {
      "constant": true,
      "inputs": [],
      "name": "getNumOfCandidates",
      "outputs": [
        {
          "name": "",
          "type": "uint256"
        }
      ],
      "payable": false,
      "stateMutability": "view",
      "type": "function"
    },
    {
      "constant": true,
      "inputs": [],
      "name": "getNumOfVoters",
      "outputs": [
        {
          "name": "",
          "type": "uint256"
        }
      ],
      "payable": false,
      "stateMutability": "view",
      "type": "function"
    },
    {
      "constant": true,
      "inputs": [
        {
          "name": "candidateID",
          "type": "uint256"
        }
      ],
      "name": "getCandidate",
      "outputs": [
        {
          "name": "",
          "type": "uint256"
        },
        {
          "name": "",
          "type": "bytes32"
        },
        {
          "name": "",
          "type": "bytes32"
        }
      ],
      "payable": false,
      "stateMutability": "view",
      "type": "function"
    }
  ],
  "bytecode": "0x608060405234801561001057600080fd5b50336000806101000a81548173ffffffffffffffffffffffffffffffffffffffff021916908373ffffffffffffffffffffffffffffffffffffffff160217905550610480806100606000396000f300608060405260043610610078576000357c0100000000000000000000000000000000000000000000000000000000900463ffffffff16806319e6e1581461007d57806335b8e820146100be57806365fc783c1461011d5780639ef1204c14610148578063a1adbb2514610183578063e8685ba1146101c2575b600080fd5b34801561008957600080fd5b506100a8600480360381019080803590602001909291905050506101ed565b6040518082815260200191505060405180910390f35b3480156100ca57600080fd5b506100e960048036038101908080359060200190929190505050610242565b6040518084815260200183600019166000191681526020018260001916600019168152602001935050505060405180910390f35b34801561012957600080fd5b50610132610283565b6040518082815260200191505060405180910390f35b34801561015457600080fd5b5061018160048036038101908080356000191690602001909291908035906020019092919050505061028d565b005b34801561018f57600080fd5b506101c060048036038101908080356000191690602001909291908035600019169060200190929190505050610321565b005b3480156101ce57600080fd5b506101d761044a565b6040518082815260200191505060405180910390f35b6000806000809150600090505b60025481101561023857836004600083815260200190815260200160002060010154141561022b5781806001019250505b80806001019150506101fa565b8192505050919050565b600080600083600360008681526020019081526020016000206000015460036000878152602001908152602001600020600101549250925092509193909250565b6000600254905090565b6000600115156003600084815260200190815260200160002060020160009054906101000a900460ff161515141561031c5760026000815480929190600101919050559050604080519081016040528084600019168152602001838152506004600083815260200190815260200160002060008201518160000190600019169055602082015181600101559050505b505050565b60008060009054906101000a900473ffffffffffffffffffffffffffffffffffffffff1673ffffffffffffffffffffffffffffffffffffffff163373ffffffffffffffffffffffffffffffffffffffff1614151561037e57600080fd5b6001600081548092919060010191905055905060606040519081016040528084600019168152602001836000191681526020016001151581525060036000838152602001908152602001600020600082015181600001906000191690556020820151816001019060001916905560408201518160020160006101000a81548160ff0219169083151502179055509050507fec542c373a064661ffef02d633752debf28f3e6c9f253680822d9ccf8b47aec6816040518082815260200191505060405180910390a1505050565b60006001549050905600a165627a7a72305820f33a20e29549250306c93e6167b0ea8c23d42522a389c4d07c998fa734b2c9c40029",
  "source": "pragma solidity >=0.4.21 <0.6.0;\r\n// written for Solidity version 0.4.18 and above that doesnt break functionality\r\n\r\ncontract Voting {\r\n    // an event that is called whenever a Candidate is added so the frontend could\r\n    // appropriately display the candidate with the right element id (it is used\r\n    // to vote for the candidate, since it is one of arguments for the function \"vote\")\r\n    event AddedCandidate(uint candidateID);\r\n\r\n    // describes a Voter, which has an id and the ID of the candidate they voted for\r\n    address owner;\r\n    function Voting() public {\r\n        owner=msg.sender;\r\n    }\r\n    modifier onlyOwner {\r\n        require(msg.sender == owner);\r\n        _;\r\n    }\r\n    struct Voter {\r\n        bytes32 uid; // bytes32 type are basically strings\r\n        uint candidateIDVote;\r\n    }\r\n    // describes a Candidate\r\n    struct Candidate {\r\n        bytes32 name;\r\n        bytes32 party; \r\n        // \"bool doesExist\" is to check if this Struct exists\r\n        // This is so we can keep track of the candidates \r\n        bool doesExist; \r\n    }\r\n\r\n    // These state variables are used keep track of the number of Candidates/Voters \r\n    // and used to as a way to index them     \r\n    uint numCandidates; // declares a state variable - number Of Candidates\r\n    uint numVoters;\r\n\r\n    \r\n    // Think of these as a hash table, with the key as a uint and value of \r\n    // the struct Candidate/Voter. These mappings will be used in the majority\r\n    // of our transactions/calls\r\n    // These mappings will hold all the candidates and Voters respectively\r\n    mapping (uint => Candidate) candidates;\r\n    mapping (uint => Voter) voters;\r\n    \r\n    /* * * * * * * * * * * * * * * * * * * * * * * * * * * * * * * *\r\n     *  These functions perform transactions, editing the mappings *\r\n     * * * * * * * * * * * * * * * * * * * * * * * * * * * * * * * */\r\n\r\n    function addCandidate(bytes32 name, bytes32 party) onlyOwner public {\r\n        // candidateID is the return variable\r\n        uint candidateID = numCandidates++;\r\n        // Create new Candidate Struct with name and saves it to storage.\r\n        candidates[candidateID] = Candidate(name,party,true);\r\n        AddedCandidate(candidateID);\r\n    }\r\n\r\n    function vote(bytes32 uid, uint candidateID) public {\r\n        // checks if the struct exists for that candidate\r\n        if (candidates[candidateID].doesExist == true) {\r\n            uint voterID = numVoters++; //voterID is the return variable\r\n            voters[voterID] = Voter(uid,candidateID);\r\n        }\r\n    }\r\n\r\n    /* * * * * * * * * * * * * * * * * * * * * * * * * * \r\n     *  Getter Functions, marked by the key word \"view\" *\r\n     * * * * * * * * * * * * * * * * * * * * * * * * * */\r\n    \r\n\r\n    // finds the total amount of votes for a specific candidate by looping\r\n    // through voters \r\n    function totalVotes(uint candidateID) view public returns (uint) {\r\n        uint numOfVotes = 0; // we will return this\r\n        for (uint i = 0; i < numVoters; i++) {\r\n            // if the voter votes for this specific candidate, we increment the number\r\n            if (voters[i].candidateIDVote == candidateID) {\r\n                numOfVotes++;\r\n            }\r\n        }\r\n        return numOfVotes; \r\n    }\r\n\r\n    function getNumOfCandidates() public view returns(uint) {\r\n        return numCandidates;\r\n    }\r\n\r\n    function getNumOfVoters() public view returns(uint) {\r\n        return numVoters;\r\n    }\r\n    // returns candidate information, including its ID, name, and party\r\n    function getCandidate(uint candidateID) public view returns (uint,bytes32, bytes32) {\r\n        return (candidateID,candidates[candidateID].name,candidates[candidateID].party);\r\n    }\r\n}",
  "sourcePath": "D:\\Development\\blockchain_bootcamp\\hello2_truffle\\contracts\\Voting.sol",
  "compiler": {
    "name": "solc",
    "version": "0.4.25+commit.59dbf8f1.Emscripten.clang"
  },
  "schemaVersion": "2.0.2",
  "updatedAt": "2019-03-20T01:07:17.764Z"
}